:020000040800F2
:1000000000000520F56C0008A5230008A7230008C0
:10001000A9230008AB230008AD230008000000005E
:100020000000000000000000000000002163000844
:10003000AF23000800000000C1630008B35E0008A1
:10004000456D0008456D0008456D0008456D0008C8
:10005000456D0008456D0008456D0008456D0008B8
:10006000456D0008456D0008456D0008456D0008A8
:10007000456D0008456D0008456D0008456D000898
:10008000456D0008456D0008456D0008456D000888
:10009000456D0008456D0008456D0008456D000878
:1000A000456D0008B1230008456D0008456D000846
:1000B000456D0008456D0008456D0008456D000858
:1000C000456D0008456D0008456D0008456D000848
:1000D000456D0008C1230008456D0008456D000806
:1000E000456D0008456D0008456D0008456D000828
:1000F000456D0008456D0008456D0008456D000818
:10010000456D0008456D0008456D0008456D000807
:10011000456D0008456D0008456D0008456D0008F7
:10012000456D0008456D0008D1230008456D0008A5
:10013000456D0008456D0008456D0008456D0008D7
:10014000456D0008456D0008456D0008456D0008C7
:10015000456D0008456D0008E1230008456D000865
:10016000456D0008456D0008456D0008456D0008A7
:10017000456D0008456D0008456D00080000000051
:10018000456D0008456D0008456D0008456D000887
:10019000456D0008456D0008456D0008456D000877
:1001A000456D0008456D0008456D0008456D000867
:0401B000456D000891
:1001C00010B5054C237833B9044B13B10448AFF391
:1001D00000800123237010BD2021002000000000BA
:1001E00044EC010808B5034B1BB103490348AFF3C6
:1001F000008008BD000000002421002044EC01081C
:1002000001F0FF01102A2BDB10F0070F08D010F8C7
:10021000013B013A8B422DD010F0070F42B3F6D1CB
:10022000F0B441EA012141EA014122F007047FF0E4
:1002300000070023F0E80256083C85EA010586EA3B
:10024000010685FA47F5A3FA87F586FA47F6A5FA77
:1002500087F68EB9EED1F0BC01F0FF0102F0070283
:1002600032B110F8013B013A83EA010313B1F8D12E
:100270000020704701387047002D06BF354603380F
:10028000073815F0010F07D1013015F4807F02BF48
:10029000013015F4C03F0130F0BC0138704700BF99
:1002A00081F0004102E000BF83F0004330B54FEA27
:1002B00041044FEA430594EA050F08BF90EA020F94
:1002C0001FBF54EA000C55EA020C7FEA645C7FEA27
:1002D000655C00F0E2804FEA5454D4EB5555B8BF4A
:1002E0006D420CDD2C4480EA020281EA030382EABB
:1002F000000083EA010180EA020281EA0303362D4D
:1003000088BF30BD11F0004F4FEA01314FF4801C1F
:100310004CEA113102D0404261EB410113F0004F31
:100320004FEA03334CEA133302D0524263EB4303E8
:1003300094EA050F00F0A780A4F10104D5F1200E86
:100340000DDB02FA0EFC22FA05F2801841F10001E1
:1003500003FA0EF2801843FA05F359410EE0A5F1B5
:1003600020050EF1200E012A03FA0EFC28BF4CF0E6
:10037000020C43FA05F3C01851EBE37101F000459C
:1003800007D54FF0000EDCF1000C7EEB00006EEBA9
:100390000101B1F5801F1BD3B1F5001F0CD3490833
:1003A0005FEA30004FEA3C0C04F101044FEA44528A
:1003B00012F5800F80F09A80BCF1004F08BF5FEA11
:1003C000500C50F1000041EB045141EA050130BDF1
:1003D0005FEA4C0C404141EB0101013C28BFB1F503
:1003E000801FE9D291F0000F04BF01460020B1FA4E
:1003F00081F308BF2033A3F10B03B3F120020CDA21
:100400000C3208DD02F1140CC2F10C0201FA0CF0FE
:1004100021FA02F10CE002F11402D8BFC2F1200C63
:1004200001FA02F120FA0CFCDCBF41EA0C01904019
:10043000E41AA2BF01EB0451294330BD6FEA040462
:100440001F3C1CDA0C340EDC04F11404C4F120024D
:1004500020FA04F001FA02F340EA030021FA04F35F
:1004600045EA030130BDC4F10C04C4F1200220FAB6
:1004700002F001FA04F340EA0300294630BD21FAF4
:1004800004F0294630BD94F0000F83F4801306BFBA
:1004900081F480110134013D4EE77FEA645C18BFAE
:1004A0007FEA655C29D094EA050F08BF90EA020F45
:1004B00005D054EA000C04BF1946104630BD91EA3D
:1004C000030F1EBF0021002030BD5FEA545C05D140
:1004D0004000494128BF41F0004130BD14F580047F
:1004E0003CBF01F5801130BD01F0004545F0FE41F3
:1004F00041F470014FF0000030BD7FEA645C1ABF28
:10050000194610467FEA655C1CBF0B46024650EA5E
:10051000013406BF52EA033591EA030F41F400218A
:1005200030BD00BF90F0000F04BF0021704730B510
:100530004FF4806404F132044FF000054FF00001E5
:1005400050E700BF90F0000F04BF0021704730B5A6
:100550004FF4806404F1320410F0004548BF40427B
:100560004FF000013EE700BF42004FEAE2014FEAD0
:1005700031014FEA02701FBF12F07F4393F07F4FAB
:1005800081F06051704732F07F4208BF704793F0AE
:100590007F4F04BF41F40021704730B54FF46074C1
:1005A00001F0004521F000411CE700BF50EA0102C4
:1005B00008BF704730B54FF000050AE050EA01026D
:1005C00008BF704730B511F0004502D5404261EBDD
:1005D00041014FF4806404F132045FEA915C3FF41E
:1005E000D8AE4FF003025FEADC0C18BF03325FEABB
:1005F000DC0C18BF033202EBDC02C2F1200300FA6C
:1006000003FC20FA02F001FA03FE40EA0E0021FA90
:1006100002F11444BDE600BF70B54FF0FF0C4CF47E
:10062000E06C1CEA11541DBF1CEA135594EA0C0F30
:1006300095EA0C0F00F0DEF82C4481EA030621EA6B
:100640004C5123EA4C5350EA013518BF52EA0335A6
:1006500041F4801143F4801338D0A0FB02CE4FF058
:100660000005E1FB02E506F00042E0FB03E54FF088
:100670000006E1FB03569CF0000F18BF4EF0010E80
:10068000A4F1FF04B6F5007F64F5407404D25FEA7C
:100690004E0E6D4146EB060642EAC62141EA55512F
:1006A0004FEAC52040EA5E504FEACE2EB4F1FD0C71
:1006B00088BFBCF5E06F1ED8BEF1004F08BF5FEAEF
:1006C000500E50F1000041EB045170BD06F00046A1
:1006D00046EA010140EA020081EA0301B4EB5C044E
:1006E000C2BFD4EB0C0541EA045170BD41F4801146
:1006F0004FF0000E013C00F3AB8014F1360FDEBF6B
:10070000002001F0004170BDC4F10004203C35DA46
:100710000C341BDC04F11404C4F1200500FA05F3C9
:1007200020FA04F001FA05F240EA020001F000426A
:1007300021F0004110EBD37021FA04F642EB0601E0
:100740005EEA430E08BF20EAD37070BDC4F10C040A
:10075000C4F1200500FA04F320FA05F001FA04F2CE
:1007600040EA020001F0004110EBD37041F10001BA
:100770005EEA430E08BF20EAD37070BDC4F12005C5
:1007800000FA05F24EEA020E20FA04F301FA05F22D
:1007900043EA020321FA04F001F0004121FA04F2D5
:1007A00020EA020000EBD3705EEA430E08BF20EAA5
:1007B000D37070BD94F0000F0FD101F000464000DF
:1007C00041EB010111F4801F08BF013CF7D041EA61
:1007D000060195F0000F18BF704703F00046520065
:1007E00043EB030313F4801F08BF013DF7D043EA36
:1007F0000603704794EA0C0F0CEA135518BF95EAEC
:100800000C0F0CD050EA410618BF52EA4306D1D172
:1008100081EA030101F000414FF0000070BD50EA91
:10082000410606BF1046194652EA430619D094EA1B
:100830000C0F02D150EA013613D195EA0C0F05D105
:1008400052EA03361CBF104619460AD181EA030159
:1008500001F0004141F0FE4141F470014FF0000011
:1008600070BD41F0FE4141F4780170BD70B54FF0AC
:10087000FF0C4CF4E06C1CEA11541DBF1CEA13552C
:1008800094EA0C0F95EA0C0F00F0A7F8A4EB05040E
:1008900081EA030E52EA03354FEA013100F0888005
:1008A0004FEA03334FF0805545EA131343EA1263CE
:1008B0004FEA022245EA111545EA10654FEA002683
:1008C0000EF000419D4208BF964244F1FD0404F53C
:1008D000407402D25B084FEA3202B61A65EB030598
:1008E0005B084FEA32024FF480104FF4002CB6EB55
:1008F000020E75EB030E22BFB61A754640EA0C00D5
:100900005B084FEA3202B6EB020E75EB030E22BF14
:10091000B61A754640EA5C005B084FEA3202B6EB55
:10092000020E75EB030E22BFB61A754640EA9C0014
:100930005B084FEA3202B6EB020E75EB030E22BFE4
:10094000B61A754640EADC0055EA060E18D04FEAA2
:10095000051545EA16754FEA06164FEAC30343EA42
:1009600052734FEAC2025FEA1C1CC0D111F4801F0F
:100970000BD141EA00014FF000004FF0004CB6E708
:1009800011F4801F04BF01430020B4F1FD0C88BFA7
:10099000BCF5E06F3FF6AFAEB5EB030C04BFB6EBB2
:1009A000020C5FEA500C50F1000041EB045170BDA5
:1009B0000EF0004E4EEA113114EB5C04C2BFD4EBD2
:1009C0000C0541EA045170BD41F480114FF0000E56
:1009D000013C90E645EA060E8DE60CEA135594EAD2
:1009E0000C0F08BF95EA0C0F3FF43BAF94EA0C0FD5
:1009F0000AD150EA01347FF434AF95EA0C0F7FF44A
:100A000025AF104619462CE795EA0C0F06D152EA9D
:100A100003353FF4FDAE1046194622E750EA410681
:100A200018BF52EA43067FF4C5AE50EA41047FF492
:100A30000DAF52EA43057FF4EBAE12E74FF0FF3CF7
:100A400006E000BF4FF0010C02E000BF4FF0010CC8
:100A50004DF804CD4FEA410C7FEA6C5C4FEA430C41
:100A600018BF7FEA6C5C1BD001B050EA410C0CBF90
:100A700052EA430C91EA030F02BF90EA020F0020F2
:100A8000704710F1000F91EA030F58BF994208BF59
:100A900090422CBFD8176FEAE37040F00100704716
:100AA0004FEA410C7FEA6C5C02D150EA013C07D16D
:100AB0004FEA430C7FEA6C5CD6D152EA033CD3D0B8
:100AC0005DF8040B704700BF8446104662468C46B2
:100AD0001946634600E000BF01B5FFF7B7FF0028E5
:100AE00048BF10F1000F01BD4DF808EDFFF7F4FF0E
:100AF0000CBF012000205DF808FB00BF4DF808ED99
:100B0000FFF7EAFF34BF012000205DF808FB00BFBB
:100B10004DF808EDFFF7E0FF94BF012000205DF8DD
:100B200008FB00BF4DF808EDFFF7CEFF94BF012092
:100B300000205DF808FB00BF4DF808EDFFF7C4FF8B
:100B400034BF012000205DF808FB00BF4FEA410CD4
:100B50007FEA6C5C02D150EA013C0AD14FEA430CB7
:100B60007FEA6C5C02D152EA033C02D14FF00000F4
:100B700070474FF0010070474FEA4102B2F1E04385
:100B800024BFB3F5001CDCF1FE5C0DD901F0004C74
:100B90004FEAC0024CEA5070B2F1004F40EB8300C4
:100BA00008BF20F00100704711F0804F21D113F1F0
:100BB0003872BCBF01F00040704741F480114FEA29
:100BC0005252C2F11802C2F1200C10FA0CF320FAB2
:100BD00002F018BF40F001004FEAC1234FEAD323CF
:100BE00003FA0CFC40EA0C0023FA02F34FEA430339
:100BF000CCE77FEA625307D150EA01331EBF4FF0C2
:100C0000FE4040F44000704701F0004040F0FE40DC
:100C100040F40000704700BF7BB972B90029BEBF25
:100C200000204FF0004106E008BF00281CBF6FF015
:100C300000414FF0FF3000F0BBB9ADF1080C6DE999
:100C400004CE002909DB002B1ADB00F04DF8DDF89B
:100C500004E0DDE9022304B07047404261EB41014A
:100C6000002B1BDB00F040F8DDF804E0DDE9022397
:100C700004B0404261EB4101524263EB43037047D1
:100C8000524263EB430300F02FF8DDF804E0DDE9A6
:100C9000022304B0404261EB41017047524263EBD2
:100CA000430300F021F8DDF804E0DDE9022304B09D
:100CB000524263EB4303704753B94AB9002908BF56
:100CC00000281CBF4FF0FF314FF0FF3000F070B92B
:100CD000ADF1080C6DE904CE00F006F8DDF804E093
:100CE000DDE9022304B070472DE9F047089E0D4668
:100CF00004460F46002B4AD18A42944665D9B2FA7F
:100D000082F343B102FA03FCC3F120029F4020FAB0
:100D100002F217439C404FEA1C4E1FFA8CF5B7FBBA
:100D2000FEF1220C0EFB117742EA074201FB05F0AF
:100D300090420AD91CEB020201F1FF3780F01C81BE
:100D4000904240F2198102396244121AA4B2B2FBF5
:100D5000FEF00EFB102244EA024400FB05F5A5421A
:100D60000AD91CEB040400F1FF3280F00781A54290
:100D700040F204816444023840EA0140641B0021CF
:100D80001EB1DC400023C6E90043BDE8F0878B427A
:100D900008D9002E00F0ED800021C6E900050846C4
:100DA000BDE8F087B3FA83F1002949D1AB4202D301
:100DB000824200F2F880841A65EB03020120174694
:100DC000002EE2D0C6E90047DFE702B9FFDEB2FA43
:100DD00082F3002B40F090808A1A4FEA1C471FFADA
:100DE0008CFE0121B2FBF7F507FB1520220C42EA2D
:100DF00000420EFB05F0904208D91CEB020205F1FF
:100E0000FF3802D2904200F2CB804546121AA4B2BB
:100E1000B2FBF7F007FB102244EA02440EFB00FE8F
:100E2000A64508D91CEB040400F1FF3202D2A64506
:100E300000F2BB801046A4EB0E0440EA05409FE799
:100E4000C1F120078B4022FA07FC4CEA030C05FA9B
:100E500001F420FA07F3FD404FEA1C492343B5FB98
:100E6000F9F81FFA8CFE09FB18551C0C44EA0544DE
:100E700008FB0EF5A54202FA01F200FA01F00BD9C7
:100E80001CEB040408F1FF3A80F08880A54240F290
:100E90008580A8F102086444641B9DB2B4FBF9F399
:100EA00009FB134445EA044403FB0EFEA64508D99A
:100EB0001CEB040403F1FF356CD2A6456AD9023B52
:100EC000644443EA0843A3FB0295A4EB0E04AC423E
:100ED000C846AE4656D353D056B1B0EB080264EBC9
:100EE0000E0404FA07F7CA40CC401743C6E9007461
:100EF00018460021BDE8F087C3F1200102FA03FC87
:100F000020FA01F225FA01F19D402A434FEA1C47DD
:100F10001FFA8CFEB1FBF7F007FB1015110C41EA2C
:100F2000054100FB0EF58D4204FA03F408D91CEBD1
:100F3000010100F1FF382FD28D422DD902386144D2
:100F4000491B92B2B1FBF7F507FB151142EA0142CA
:100F500005FB0EF1914208D91CEB020205F1FF38A6
:100F600016D2914214D9023D6244521A45EA004118
:100F700038E73146304608E73946E6E61046FBE6F4
:100F80004845A9D2B9EB020865EB0C0E013BA3E77B
:100F90004546EAE72B4694E74046D1E7D0467BE753
:100FA000023D624432E708460AE76444023842E7F9
:100FB000704700BF034613F8012B002AFBD1181A13
:100FC0000138704710F8012B11F8013B012A28BFA6
:100FD0009A42F7D0D01A70470120704708B505F043
:100FE000A1FF162303604FF0FF3008BD08B54FF096
:100FF000FF31FFF7F3FFFEE770B50C4616460025FC
:1010000006E0AFF30080214601F8010B01350C46E4
:10101000B542F6DB304670BD70B50C46164600256D
:1010200004E014F8010BAFF300800135B542F8DBA2
:10103000304670BD08B503460D4A12685AB10C4AD5
:10104000106803440B4A11780B4A521A934206D88F
:10105000074A136008BD064A08491160EFE700BE61
:1010600005F060FF0C2303604FF0FF30F2E700BF94
:10107000402100200004000000000520B8AA042040
:101080004FF0FF3070474FF400534B600020704723
:10109000012070470020704708B50268034B9A4250
:1010A00000D008BD02F090F9FBE700BF000001404E
:1010B00072B6FEE700B595B03422002107A805F00E
:1010C00029FF00230293039304930593069300934F
:1010D000244A116C41F080511164126C02F080526C
:1010E0000092009A0193204B1A6842F440421A6021
:1010F0001B6803F440430193019B092307934FF4BA
:101100008033089301230C9302230D934FF4800244
:101110000E9208220F92B42210921193042212927E
:10112000139307A801F02EFBB0B902F09DF8A8B9FF
:101130000F23029302230393002304934FF4A0533D
:1011400005934FF480530693052102A801F026FA77
:1011500030B915B05DF804FBFFF7AAFFFFF7A8FF51
:10116000FFF7A6FF003802400070004008B502F00B
:1011700011F9FFF79FFF00F017F800F0AFFD00F046
:101180003FFF00F0B5FF01F02BF800F0C9FD00F0C3
:101190001DFE00F02FFE01F03DF804F097FE00F078
:1011A0002BF904F0A5FEFEE7F0B58DB000240794FE
:1011B000089409940A940B940194304B1A6B42F0F2
:1011C00080021A631A6B02F080020192019A029463
:1011D0001A6B42F004021A631A6B02F004020292C4
:1011E000029A03941A6B42F001021A631A6B02F01E
:1011F00001020392039A04941A6B42F002021A63EA
:101200001A6B02F002020492049A05941A6B42F0DF
:1012100010021A631A6B02F010020592059A0694E6
:101220001A6B42F008021A631B6B03F00803069363
:10123000069B802307930226089603250A950A2712
:101240000B9707A90E4801F0A5FC4FF4F063079334
:10125000089609940A950B9707A90A4801F09AFC89
:101260004FF400630793089609940A9509230B939A
:1012700007A9054801F08EFC0DB0F0BD0038024012
:1012800000000240001002400008024030B59DB04E
:101290000D46002309E000EB830211681CAA02EB53
:1012A000830242F8181C0133DBB2052BF3D9062266
:1012B00016A900F0E1FC2022002106A805F02AFE74
:1012C000254B0622082104A805F090F916AB01224F
:1012D000062102A805F08AF906AB0122082168461A
:1012E00005F084F96A4602A904A805F083F988BBD1
:1012F00000230AE0019A02EB830211681CAA02EBA8
:10130000830242F8381C0133DBB2072BF2D90822E2
:101310000EA9084600F0B0FC002416E01CAB03EB5D
:1013200084039FED0E2ADFED0E1AB7EE001AFFEED2
:10133000000A13ED0E0A00F092FCBDEEC00A10EE9A
:10134000103A25F814300134E4B2072CE6D9002015
:101350001DB030BD0120FBE7080000200080ED44F7
:101360000080894408B5012205F07EF908BD08B562
:1013700005F0CBF908BD7047704770477047000013
:101380000278074B1A7001220A701B78DBB2934275
:1013900002D0044B4B607047034B4B60704700BF5B
:1013A0000400002098EC01088CEC010803784BB194
:1013B000012B10D000230B704B700B4A4A600B4A74
:1013C000137070470023094A137001220A704B7092
:1013D000074B4B60704701230B704B70054A4A6006
:1013E000024A1370704700BFF0EC010824CB0320C1
:1013F000A8EC0108C8EC010808B5044A002104481B
:1014000004F092FD034B186008BD00BF0CEE01080C
:101410008514000820CB032002884FF080435A63D4
:1014200042889A638288DA63C2881A64028903F563
:1014300080635A6342899A638289DA63C2891A6433
:10144000704710B50446002102F000FD042120463B
:1014500002F0FCFC0821204602F0F8FC0C2120469A
:1014600002F0F4FC10BD4FF0804240F2DC535363B5
:101470009363D363136402F5806253639363D3630E
:101480001364704710B5ADF5A76D8A4B01938A4B75
:1014900000938A4B8A4A8B4901200CF0B1FA0DF275
:1014A00024500CF0E3F9884BCDF82435874BCDF868
:1014B0002835874BCDF82C35864BCDF830350DF2DD
:1014C00024500CF0E1F9002800F0E980824BCDF8BF
:1014D000F43424A80CF0F6F90DF53A7C24AC0FCCCA
:1014E000ACE80F002368CCF80030BAAB00221146FC
:1014F000BFA80AF00DFEBFAB784A7949B8A80AF038
:1015000051FE02A80AF0B4FA882202A996A805F0B2
:1015100036FDBAAB0522BFA996A80AF0B5FA09F0C4
:10152000D3FD02466F4BB8A90DF5A4600AF076FE14
:1015300006F02AFF02466C4BB8A90DF21C500AF0C7
:101540006DFE0CF0ABFD0246684BB8A90DF5A3602B
:101550000AF034FF00240094654B0DF598620DF5F8
:10156000A36196A80AF000FB0CF080FD0246614BD7
:10157000B8A90DF214500AF021FF00945E4BE0AAC6
:101580000DF2145196A80AF0EFFA0CF057FD02463E
:101590005A4BB8A90DF5A2600AF010FF0094584B01
:1015A000D6AA0DF5A26196A80AF0DEFA0CF08EFD1F
:1015B0000246544BB8A90DF20C500AF0FFFE0094FD
:1015C000514BCCAA0DF20C5196A80AF0CDFA0DF0B1
:1015D000FDF902464D4BB8A995A80AF087FE4C4B81
:1015E000009390AB94AA95A996A80AF0F1FA09F095
:1015F0004BFD0246474BB8A98FA80AF077FE464B31
:1016000000938AAB8EAA8FA996A80AF0E1FA45AB9F
:10161000424A07CA83E807001A46B8A948A80BF04F
:10162000EFFC224648A996A80BF0F8FC96A80AF011
:101630002FFD3B48FFF705FF3A48FFF702FFFFF792
:1016400012FFDDF8D4341A683F925A684092DA6883
:1016500041920022429243929B684493DDE9EC015F
:10166000FFF78AFA3B90DDE9E601FFF785FA3C9047
:10167000DDE9E801FFF780FA3D90DDE9EA01FFF7D7
:101680007BFA3E903794389439943A943394349456
:10169000359436942F943094319432944BE0D12188
:1016A000214805F025FC11E72BA93FA8FFF7EEFD27
:1016B0003EE000BF7D6C00083F6C0008316C000804
:1016C000196C000890CD0320B56A0008D56A00089F
:1016D000F56A0008356B000868ED010850FA01084A
:1016E00074ED010884ED010894ED0108A8ED0108EE
:1016F00077130008ACED010879130008B8ED010874
:101700007B130008C8ED01087D130008DCED01081B
:1017100081130008E8ED0108AD13000860EC010832
:1017200040CC032088CC032040ED0108FFF79BFE4E
:101730002BA8FFF771FE204B1B78DBB2012B37D1B2
:10174000DDF8D4341A683F925A684092DA684192C0
:101750009B68459300232B932C932D932E9340F25B
:10176000DC53ADF8AC30154B1B7803F0FF02002BB7
:101770009AD0012ADAD1DDE9EC01FFF7FDF93B90BF
:10178000DDE9E601FFF7F8F93C90DDE9E801FFF754
:10179000F3F93D90DDE9EA01FFF7EEF93E9037AB52
:1017A0000093D6ABE6AA2BA93FA800F0F5F8BDE759
:1017B000FFF759FEBFE700BF0400002024CB032041
:1017C00038B52DED068B04460D4690ED007AD0ED30
:1017D000017A27EE277AD0ED026A90ED036A26EEB1
:1017E000866A37EE067A37EE078A67EEA77A66EEE4
:1017F000A66A77EEA67A77EEA77AB7EE009A79EE28
:10180000677A17EE900AFEF7AFFE41EC1A0B18EE5E
:10181000100AFEF7A9FEB0EE4A1AF0EE6A1A41EC81
:10182000100B06F036FA51EC100BFFF7A5F9286003
:1018300094ED008AD4ED027A28EE278AD4ED017A5D
:1018400094ED037A67EE877A38EE678A38EE088A75
:1018500078EE097A17EE900AFEF786FE41EC100B3F
:1018600006F0E0FAB0EE40AAF0EE60AA79EE487A0F
:1018700017EE900AFEF778FE41EC100B06F0D2FA54
:10188000B0EE401AF0EE601AB0EE4A0AF0EE6A0AC4
:1018900006F0FFF951EC100B10EE102A0B46FEF784
:1018A00005FD1FA3D3E90023FEF7FEFCFFF764F953
:1018B0006860D4ED007AD4ED038A67EEA87A94EDDF
:1018C000017A94ED028A27EE087A77EE877A77EE2E
:1018D000A77A17EE900AFEF747FE41EC1A0B28EEA6
:1018E000088A68EEA88A38EE288A38EE088A79EEE7
:1018F000487A17EE900AFEF737FE41EC110BB0EE76
:101900004A0AF0EE6A0A06F0C4F951EC100BFFF730
:1019100033F9A860BDEC068B38BD00BFAFF3008083
:10192000182D4454FB21F93F70B584B00646084693
:1019300001A9FFF745FF0024254601E00134E4B288
:10194000022C1ED8E31C06EB8303D3ED007AF0EEE5
:10195000E77A17EE900AFEF707FE0CA3D3E90023FF
:10196000FFF7CCF80028E9D0621C04AB03EB82033C
:1019700053F80C1C044B03EB820319600135EDB2E4
:10198000DCE7284604B070BD78CB03209A9999997A
:101990009999A93F00000000F0B52DED068B9BB092
:1019A000054616461C46269F17A91046FFF708FF56
:1019B00023681693224631462846FFF7B5FF0023D9
:1019C0000AE005EB8304D4F800C01AAA02EB8304F2
:1019D00044F828CC0133DBB2052BF2D98C4D8D4C69
:1019E00097ED011AD5ED010A9DED170A04F11400D7
:1019F00000F012F9F0EE408A97ED021AD5ED020AD6
:101A00009DED180A04F1280000F006F9B0EE408AB6
:101A100097ED031AD5ED030A9DED190A04F13C0078
:101A200000F0FAF8F0EE40AA97ED001AD5ED000AA2
:101A30009DED160A204600F0EFF800230C930D935D
:101A40000E938DED0F0A0024089409940A940B94C8
:101A500008A93046FFF786FC049405940694079481
:101A6000009401940294039404AA0CA908A8FFF717
:101A70007EFC6A46314604A8FFF779FC9DED02AA78
:101A8000F0EECA7A17EE900AFEF76EFD5EA3D3E978
:101A90000023FFF733F850B91098FEF765FD5AA3FD
:101AA000D3E90023FFF72AF8E0B1012300E0012386
:101AB000DDB2DDED019AF0EEE97A17EE900AFEF75D
:101AC00053FD51A3D3E90023FFF718F860B911982B
:101AD000FEF74AFD4CA3D3E90023FFF70FF8F8B156
:101AE000012402E00023E3E70124E4B29DED039A20
:101AF000F0EEC97A17EE900AFEF736FD42A3D3E95D
:101B00000023FEF7FBFF68B91298FEF72DFD3EA3F8
:101B1000D3E90023FEF7F2FF002867D0012302E09B
:101B20000024E2E70123DBB29CB195B18BB1DDED7E
:101B3000107A77EE8A7ACDED107ADDED117A77EEB4
:101B4000A97ACDED117ADDED127A77EE897ACDEDB5
:101B5000127AF0EEE87A17EE900AFEF705FD2AA356
:101B6000D3E90023FEF7CAFF40B91398FEF7FCFC47
:101B700025A3D3E90023FEF7C1FF28B1DDED137AD9
:101B800077EEA87ACDED137AF0EEC87A17EE900AC8
:101B9000FEF7EAFC1CA3D3E90023FEF7AFFF40B930
:101BA0001498FEF7E1FC18A3D3E90023FEF7A6FF83
:101BB00028B1DDED147A77EE887ACDED147AF0EE67
:101BC000EA7A17EE900AFEF7CFFC0FA3D3E90023C1
:101BD000FEF794FF60B91598FEF7C6FC0AA3D3E997
:101BE0000023FEF78BFF18B9002008E000239AE7D6
:101BF000DDED157A37EEAA0A8DED150A01201BB02E
:101C0000BDEC068BF0BD00BF9A9999999999A93FAF
:101C100078CB032028CB032070EEC00AD0ED007AE9
:101C200027EEA07A60EE817AD0ED036A77EEA67A8D
:101C3000C0ED037AD0ED016A67EEA67AD0ED046AB2
:101C400070EEE66A86EE816A90ED020A20EE060AE0
:101C500077EE277AC0ED040A37EE800A704732EE3D
:101C6000612A31EE601AC2EE017A30EE600A27EE88
:101C7000800A30EE210A704700239FED177A01E0B9
:101C80000133DBB293420DD200EB830CDCED007A22
:101C9000F0EEE77AB4EEE77AF1EE10FAF0D5B0EEB6
:101CA000677AEDE7F7EE007AB4EEE77AF1EE10FA34
:101CB00001DD00230CE0704700EB830CDCED006AD3
:101CC00001EB830CC6EE877ACCED007A0133DBB2F0
:101CD0009342F1D3704700BF0000000010B582B0FE
:101CE000002401940D4B1A6B42F480021A631B6BA3
:101CF00003F480030193019B224605213A2001F061
:101D000003FB3A2001F038FB22460521462001F072
:101D1000FBFA462001F030FB02B010BD0038024053
:101D200008B50B480B4B03600B4B436000238360EB
:101D3000C3604FF48042026143618361C361036207
:101D400001F054FB00B908BDFFF7B2F9FBE700BF93
:101D500088CB032000540040A086010030B589B034
:101D60000023039304930593069307930268144B8F
:101D70009A4201D009B030BD00250195114C236B6A
:101D800043F002032363236B03F002030193019BDF
:101D9000C02303931223049303230693042307937E
:101DA00003A9094800F0F6FE0295236C43F40013E2
:101DB0002364236C03F400130293029BDAE700BF51
:101DC00000540040003802400004024008B50748B3
:101DD000074B03600623436040F2E143836001F058
:101DE000E3FB00B908BDFFF763F9FBE7DCCB032099
:101DF0000030004008B50E480E4B03604FF482736C
:101E0000436000238360C360036143614FF4007249
:101E100082610822C2610362436283620A23C36251
:101E200001F0EEFB00B908BDFFF742F9FBE700BF88
:101E3000E8CB032000380040F0B589B000230393BD
:101E4000049305930693079302681E4B9A4201D0B0
:101E500009B0F0BD0024009403F500331A6C42F47D
:101E600080421A641A6C02F480420092009A019433
:101E70001A6B42F004021A631A6B02F00402019218
:101E8000019A02941A6B42F008021A631B6B03F06A
:101E900008030293029B0623039302270497032659
:101EA00006960525079503A9074800F073FE082349
:101EB0000393049705940696079503A9034800F039
:101EC00069FEC5E70038004000080240000C0240EF
:101ED00082B00368B3F1804F04D00F4A93420ED012
:101EE00002B07047002300930C4B1A6C42F00102C1
:101EF0001A641B6C03F001030093009BF0E70023BE
:101F00000193064B1A6C42F002021A641B6C03F038
:101F100002030193019BE3E7000400400038024004
:101F200030B58BB00023059306930793089309936C
:101F30000368B3F1804F04D02C4A934218D00BB001
:101F400030BD002301932A4B1A6B42F001021A6341
:101F50001B6B03F001030193019B2E2305930223C6
:101F600006930123099305A9224800F013FEE6E732
:101F7000002402941E4B1A6B42F001021A631A6B82
:101F800002F001020292029A03941A6B42F00202DA
:101F90001A631A6B02F002020392039A04941A6BFA
:101FA00042F004021A631B6B03F004030493049BC6
:101FB0004023059302250695099505A90D4800F0D3
:101FC000E9FD03230593069507940894099505A94F
:101FD000094800F0DFFD80230593069507940894D7
:101FE000099505A9054800F0D5FDA8E700040040C3
:101FF0000038024000000240000402400008024095
:1020000000B58FB000230A930B930C930D930893A4
:102010000993019302930393049305930693079303
:1020200032484FF08042026059224260836042F29F
:102030000F72C26003618023836101F06DFD00288F
:102040003BD14FF480530A930AA9284801F06FFE50
:10205000002835D1254801F08BFD002833D100231D
:102060000893099308A9214801F06CFF70BB602315
:10207000019340F2DB53029300220392059201A9DF
:102080001A4801F0D9FD20BB04220DEB02011748CC
:1020900001F0D2FD00BB082201A9144801F0CCFDDB
:1020A000E8B90C2201A9114801F0C6FDD0B90F48CA
:1020B000FFF736FF0FB05DF804FBFEF7F9FFC0E74E
:1020C000FEF7F6FFC6E7FEF7F3FFC8E7FEF7F0FFFF
:1020D000CDE7FEF7EDFFD7E7FEF7EAFFDBE7FEF718
:1020E000E7FFDEE7FEF7E4FFE1E700BF40CC0320B7
:1020F00000B58FB000230A930B930C930D930893B4
:102100000993019302930393049305930693079312
:102110003148324A026059224260836042F20F72B3
:10212000C26003618023836101F0F6FC00283BD18B
:102130004FF480530A930AA9274801F0F8FD0028BC
:1021400035D1254801F014FD002833D10023089330
:10215000099308A9204801F0F5FE70BB60230193A4
:1021600040F2DB53029300220392059201A91A4820
:1021700001F062FD20BB04220DEB0201164801F0C4
:102180005BFD00BB082201A9134801F055FDE8B929
:102190000C2201A9104801F04FFDD0B90E48FFF7FD
:1021A000BFFE0FB05DF804FBFEF782FFC0E7FEF74D
:1021B0007FFFC6E7FEF77CFFC8E7FEF779FFCDE7B4
:1021C000FEF776FFD7E7FEF773FFDBE7FEF770FF5A
:1021D000DEE7FEF76DFFE1E788CC03200004004056
:1021E00008B50A480A4B03604FF4E133436000230B
:1021F0008360C36003610C2242618361C36101F0AB
:10220000DFFF00B908BDFEF753FFFBE790CD0320C9
:102210000010014008B50A480A4B03604FF4E1334F
:10222000436000238360C36003610C2242618361C9
:10223000C36101F0C5FF00B908BDFEF739FFFBE738
:10224000D8CD03200048004030B58BB00023059363
:1022500006930793089309930368494A934204D06D
:10226000484A934268D00BB030BD04460025019522
:10227000454B5A6C42F010025A645A6C02F010023C
:102280000192019A02951A6B42F001021A631B6BCC
:1022900003F001030293029B4FF4C06305930223F2
:1022A0000693032308930723099305A9374800F0F1
:1022B00071FC3748374B03604FF000634360856023
:1022C000C5604FF480630361456185614FF480739D
:1022D000C3614FF440330362456200F0DFFD28BB69
:1022E0002B4BE3639C632C482C4B03604FF0006343
:1022F0004360402383600023C3604FF48062026127
:1023000043618361C3614FF440320262436200F073
:10231000C5FD70B9204BA3639C63002205212520D5
:1023200000F0F2FF252001F027F89CE7FEF7C0FE41
:10233000D6E7FEF7BDFEEDE700210391124B1A6CC4
:1023400042F480221A641A6C02F480220392039AE7
:1023500004911A6B42F002021A631B6B03F0020332
:102360000493049B4FF440630593022306930323D5
:1023700008930723099305A9094800F00BFC72E7AD
:1023800000100140004800400038024000000240B8
:10239000D0CC03204064024030CD0320B86402401A
:1023A00000040240FEE7FEE7FEE7FEE7FEE77047B7
:1023B00008B5024801F095FA08BD00BF20CE032001
:1023C00008B5024802F096F808BD00BF90CD032082
:1023D00008B5024800F05AFE08BD00BFD0CC03206B
:1023E00008B5024800F052FE08BD00BF30CD032002
:1023F00000B583B0002200920D4B596C41F480412E
:102400005964596C01F48041009100990192196C52
:1024100041F0805119641B6C03F080530193019BC0
:102420000F216FF0010000F06FFF03B05DF804FBB7
:102430000038024030B589B00546002401941E4B97
:102440005A6C42F001025A645B6C03F00103019381
:10245000019B02A903A800F077F900F065F9430099
:10246000164AA2FB03239B0C013B1548154A026048
:1024700040F2E732C260436004618460846101F02D
:102480004BFB044610B1204609B030BD0C4801F0AA
:10249000DFF904460028F6D1192000F06DFF0F2D5A
:1024A00001D90124EFE700222946192000F02CFF72
:1024B000054B1D60E7E700BF0038024083DE1B4389
:1024C00020CE032000000140CC00002008B5314B95
:1024D0009B6803F00C03082B01D02F4808BD2D4B3F
:1024E0005A6802F03F025B6813F4800F2CD0294B2E
:1024F0005868C0F388104FEA401CBCEB000C6EEB30
:102500000E0E4FEA8E1343EA9C634FEA8C11B1EB37
:102510000C0163EB0E03DB0043EA5173C90011EBBE
:10252000000C43F10003990200234FEA8C2041EA9A
:102530009C51FEF7C1FB174B5B68C3F301430133AA
:102540005B00B0FBF3F0C9E7124B5868C0F388108A
:102550004FEA401CBCEB000C6EEB0E0E4FEA8E13E4
:1025600043EA9C634FEA8C11B1EB0C0163EB0E0361
:10257000DB0043EA5173C90011EB000C43F1000387
:10258000990200234FEA8C2041EA9C51FEF794FB0C
:10259000D1E700BF003802400024F400002800F01A
:1025A0009B8070B50D4604464F4B1B6803F00F032C
:1025B0008B4208D2CBB24C4A1370136803F00F035E
:1025C0008B4240F08B80236813F0020F17D013F07A
:1025D000040F04D0454A936843F4E05393602368A2
:1025E00013F0080F04D0414A936843F460439360AA
:1025F0003E4A936823F0F003A1680B43936023687D
:1026000013F0010F32D06368012B21D09A1E012AEA
:1026100025D9364A126812F0020F61D033498A6810
:1026200022F0030213438B6000F0DAFE06462F4BC4
:102630009B6803F00C036268B3EB820F16D000F0C6
:10264000CFFE801B41F288339842F0D9032042E04C
:10265000264A126812F4003FE0D101203BE0234AF1
:10266000126812F0007FD9D1012034E01E4B1B68A4
:1026700003F00F03AB4207D9EAB21B4B1A701B6879
:1026800003F00F03AB422DD1236813F0040F06D0E3
:10269000164A936823F4E053E1680B439360236880
:1026A00013F0080F07D0114A936823F4604321699F
:1026B00043EAC1039360FFF709FF0C4B9B68C3F328
:1026C00003130B4AD35CD8400A4B18600A4B1868B6
:1026D000FFF7B0FE002070BD012070470120FAE72F
:1026E0000120F8E70120F6E7003C024000380240F4
:1026F00038EE0108D0000020CC000020014B186803
:10270000704700BFD000002008B5FFF7F7FF044B6B
:102710009B68C3F38223034AD35CD84008BD00BF43
:102720000038024048EE010808B5FFF7E7FF044B08
:102730009B68C3F34233034AD35CD84008BD00BF53
:102740000038024048EE01080F2303600B4B9A68E3
:1027500002F0030242609A6802F0F00282609A6816
:1027600002F4E052C2609B68DB0803F4E0530361AB
:10277000034B1B6803F00F030B60704700380240E7
:10278000003C0240002800F0E98170B582B00446A8
:10279000036813F0010F3BD09F4B9B6803F00C03C1
:1027A000042B2CD09C4B9B6803F00C03082B21D0EE
:1027B0006368B3F5803F4FD0B3F5A02F52D0964B4E
:1027C0001A6822F480321A601A6822F480221A6091
:1027D0006368002B50D000F003FE05468E4B1B684B
:1027E00013F4003F14D100F0FBFD401B6428F5D921
:1027F0000320BAE1884B5B6813F4800FD8D0864B76
:102800001B6813F4003F03D06368002B00F0A8811D
:10281000236813F0020F54D07F4B9B6813F00C0F0A
:102820003ED07D4B9B6803F00C03082B33D0E3684C
:10283000002B68D0794B01221A6000F0D1FD0546CB
:10284000754B1B6813F0020F54D100F0C9FD401BFB
:102850000228F5D9032088E16F4A136843F48033D6
:102860001360B5E76C4B1A6842F480221A601A684C
:1028700042F480321A60ABE700F0B2FD0546664BC9
:102880001B6813F4003FC3D000F0AAFD401B64286E
:10289000F5D9032069E1604B5B6813F4800FC6D162
:1028A0005D4B1B6813F0020F03D0E368012B40F06F
:1028B0005981594A136823F0F803216943EAC10397
:1028C0001360236813F0080F42D063696BB3534B56
:1028D0000122C3F8802E00F083FD05464E4B5B6F4E
:1028E00013F0020F34D100F07BFD401B0228F5D914
:1028F00003203AE1484A136823F0F803216943EAC8
:10290000C1031360DDE7454B00221A6000F068FD4B
:102910000546414B1B6813F0020FD2D000F060FD5A
:10292000401B0228F5D903201FE13C4B0022C3F8CD
:10293000802E00F055FD0546374B5B6F13F0020FFC
:1029400006D000F04DFD401B0228F5D903200CE114
:10295000236813F0040F77D02F4B1B6C13F0805FAC
:1029600033D1002301932C4B1A6C42F080521A642D
:102970001B6C03F080530193019B0125284B1B68BE
:1029800013F4807F23D0A368012B34D0052B38D0DB
:10299000214B1A6F22F001021A671A6F22F004020B
:1029A0001A67A368002B3DD000F01AFD06461A4BAB
:1029B0001B6F13F0020F46D100F012FD801B41F295
:1029C00088339842F3D90320CFE00025D6E7144A94
:1029D000136843F48073136000F002FD0646104B49
:1029E0001B6813F4807FCED100F0FAFC801B022814
:1029F000F5D90320B9E0084A136F43F001031367C8
:102A0000CFE7054B1A6F42F004021A671A6F42F0C3
:102A100001021A67C5E700BF0038024000004742C4
:102A20000070004000F0DCFC0646584B1B6F13F0B2
:102A3000020F08D000F0D4FC801B41F2883398428A
:102A4000F3D9032091E0EDB9A369002B00F08C804D
:102A50004E4A926802F00C02082A54D0022B17D07A
:102A60004B4B00221A6600F0BBFC0446474B1B6828
:102A700013F0007F45D000F0B3FC001B0228F5D90D
:102A8000032072E0414A136C23F080531364DBE7A8
:102A90003F4B00221A6600F0A3FC05463B4B1B6827
:102AA00013F0007F06D000F09BFC401B0228F5D9F4
:102AB00003205AE0E369226A1343626A43EA8213FD
:102AC000A26A5208013A43EA0243E26A43EA026315
:102AD000226B43EA02732D4A53602D4B01221A6682
:102AE00000F07EFC0446294B1B6813F0007F06D1E2
:102AF00000F076FC001B0228F5D9032035E0002009
:102B000033E0002031E0012B31D0204B5B6803F42F
:102B10008001E26991422CD103F03F02216A8A428E
:102B200029D1616A47F6C0721A40B2EB811F24D1E5
:102B300003F44031A26A5208013AB1EB024F1ED1B0
:102B400003F07062E16AB2EB016F1AD103F0E04367
:102B5000226BB3EB027F16D1002006E00120704704
:102B6000012002E0012000E0002002B070BD012041
:102B7000FBE70120F9E70120F7E70120F5E7012055
:102B8000F3E70120F1E70120EFE700BF0038024042
:102B90000000474200230F2B00F2F68070B582B090
:102BA00066E085684FEA430E032404FA0EF425EA32
:102BB0000405CC6804FA0EF42C438460446824EACB
:102BC00002044A68C2F300129A40224342605DE068
:102BD000DC08083450F8242003F00705AD004FF05E
:102BE0000F0E0EFA05FE22EA0E0E0A69AA4042EA0C
:102BF0000E0240F824205DE0092200E0002202FAE3
:102C00000EF22A430234614D45F82420604A94684C
:102C10006FEA0C0224EA0C054E6816F4801F01D0FE
:102C20004CEA04055A4CA560E46802EA04054E68C3
:102C300016F4001F01D04CEA0405554CE5606468A9
:102C400002EA04054E6816F4003F01D04CEA040580
:102C50004F4C6560246822404D6815F4803F01D0D8
:102C60004CEA04024A4C226001330F2B00F28A80A6
:102C700001229A400C6804EA020C32EA0404F3D1FF
:102C80004C6804F00304013C012C8AD94A6802F024
:102C90000302032A09D0C4685D000322AA4024EA83
:102CA00002048A68AA402243C2604A6802F0030212
:102CB000022A8DD004684FEA430E032202FA0EF274
:102CC00024EA02044A6802F0030202FA0EF22243E6
:102CD00002604A6812F4403FC6D0002201922D4A99
:102CE000546C44F480445464526C02F48042019267
:102CF000019A9C08A51C254A52F8255003F0030EA2
:102D00004FEA8E0E0F2202FA0EF225EA0205224A3F
:102D100090423FF473AF02F58062904222D002F5F8
:102D20008062904220D002F5806290421ED002F56F
:102D3000806290421CD002F5806290421AD002F567
:102D40008062904218D002F58062904216D002F55F
:102D50008062904214D002F5806290423FF44CAF02
:102D60000A224CE701224AE7022248E7032246E70B
:102D7000042244E7052242E7062240E707223EE715
:102D800008223CE702B070BD704700BF0038014028
:102D9000003C0140003802400000024030B40568A9
:102DA0002C6824F480242C60046863608368402BC2
:102DB00005D0036899600368DA6030BC7047036827
:102DC0009A600368D960F8E710B40368D9B2103983
:102DD0000C4AA2FB014212090B4CA25CC2655F299E
:102DE00009D923F47F7323F0030304338365806DD3
:102DF0005DF8044B704723F47F7323F0030383656E
:102E0000F5E700BFABAAAAAA30EE0108836A82697F
:102E100092B9012B0AD0022B02D00BB100207047CF
:102E2000C36A13F0807F28D100207047C36AB3F1D2
:102E3000C07F24D000207047B2F5005F09D0022B7C
:102E400025D9032B25D1C36A13F0807F23D100201D
:102E50007047032B03D8DFE803F01404140A0020A2
:102E60007047C36A13F0807F0DD100207047C36A9A
:102E7000B3F1C07F09D000207047012070470120C6
:102E800070470120704701207047012070470120E2
:102E900070470020704701207047000070B504465D
:102EA00000F09EFA002C5BD00546022384F83530F2
:102EB000002384F834302268136823F00103136080
:102EC00023681A6812F0010F0AD000F089FA431B38
:102ED000052BF5D920236365032084F8350070BDE8
:102EE0001A68204911406268A0680243E068024302
:102EF0002069024360690243A0690243E06902431A
:102F0000206A02430A43616A04291ED01A602668B7
:102F1000756925F00705636A1D43042B07D1A36A71
:102F20001D43E36A1BB12046FFF770FF90B975613E
:102F30002046FFF749FFE26D3F2393408360002066
:102F40006065012384F83530C9E7E16A206B0143ED
:102F50000A43DBE740236365012084F83500BEE7C0
:102F60000120BCE73F8010F038B50446856D90F82D
:102F7000340001282BD0012084F8340094F8350067
:102F8000C0B2012804D0002384F83430022038BDB8
:102F9000022084F83500002060652046FFF7FEFE21
:102FA000E26D3F239340AB602268136843F0160341
:102FB0001360236C23B12268136843F00803136085
:102FC0002268136843F0010313600020DFE702204A
:102FD000DDE770B50446866D00F002FA94F83530EE
:102FE000DBB2022B06D080236365002384F83430E3
:102FF000012070BD05462268136823F01603136094
:103000002268536923F080035361236CE3B1226883
:10301000136823F0080313602268136823F0010388
:10302000136023681B6813F0010F11D000F0D8F96A
:10303000431B052BF5D920236365032084F8350055
:10304000002384F83430D4E7A36C002BDFD1E3E70E
:10305000E26D3F239340B360012384F835300020B4
:1030600084F83400C5E790F83530DBB2022B03D08A
:103070008023436501207047052380F835300268BE
:10308000136823F00103136000207047F0B583B08C
:10309000044600230193724B1D68724BA3FB053558
:1030A000AD0A876D3E68C26D08239340334210D04D
:1030B00003681A6812F0040F0BD01A6822F0040299
:1030C0001A60C26D08239340BB60436D43F0010357
:1030D0004365E26D01239340334209D0226852696F
:1030E00012F0800F04D0BB60636D43F00203636590
:1030F000E26D04239340334209D02268126812F033
:10310000020F04D0BB60636D43F004036365E26D9E
:1031100010239340334224D02268126812F0080F23
:103120001FD0BB6023681A6812F4802F0DD01B6873
:1031300013F4002F04D1236C9BB12046984710E074
:10314000A36C73B1204698470BE01A6812F4807F95
:1031500003D11A6822F008021A60236C0BB12046D2
:103160009847E26D20239340334255D0226812687D
:1031700012F0100F50D0BB6094F83530DBB2052B45
:103180000ED023681A6812F4802F33D01B6813F412
:10319000002F2AD1636C002B3ED0204698473BE09D
:1031A0002268136823F0160313602268536923F022
:1031B00080035361236CA3B12268136823F00803D2
:1031C0001360E26D3F239340BB60012384F83530E8
:1031D000002384F83430236D002B3FD020469847DD
:1031E0003CE0A36C002BE7D1EBE7E36BA3B12046F7
:1031F000984711E01A6812F4807F09D11A6822F00A
:1032000010021A60012384F83530002384F834302A
:10321000E36B0BB120469847636DFBB1636D13F010
:10322000010F17D0052384F835302268136823F086
:1032300001031360019B01330193AB4204D823685F
:103240001B6813F0010FF5D1012384F835300023FA
:1032500084F83430E36C0BB12046984703B0F0BDDE
:10326000D0000020B5814E1B10B582B00023019321
:10327000194B1A6C42F080521A641B6C03F0805395
:103280000193019B154B01221A6400F0A9F8044632
:10329000134B5B6813F4803F08D100F0A1F8001BCA
:1032A000B0F57A7FF4D9032002B010BD0B4B012298
:1032B0005A6400F095F80446094B5B6813F4003F2C
:1032C00007D100F08DF8001BB0F57A7FF4D9032008
:1032D000EAE70020E8E700BF0038024000000E42A5
:1032E00000700040074AD36823F4E0631B041B0C02
:1032F000000200F4E060034343F0BF6343F4003393
:10330000D360704700ED00E000B5194BDB68C3F3F4
:103310000223C3F1070CBCF1040F28BF4FF0040CCB
:1033200003F1040EBEF1060F18D9033B4FF0FF3E28
:103330000EFA0CFC21EA0C0199400EFA03FE22EA77
:103340000E020A4300280BDB1201D2B200F16040EA
:1033500000F5614080F800235DF804FB0023E5E7F9
:1033600000F00F001201D2B2024B1A54F4E700BF72
:1033700000ED00E014ED00E0002807DB00F01F0284
:10338000400901239340024A42F82030704700BFB1
:1033900000E100E008B50B4B1A6842F400721A60B5
:1033A0001A6842F480621A601A6842F480721A60E5
:1033B0000320FFF797FF0F20FFF73CF8FFF718F8FF
:1033C000002008BD003C0240034A1168034B1B78F3
:1033D0000B441360704700BF68CE0320C800002074
:1033E000014B1868704700BF68CE0320002800F02A
:1033F000CC8070B5044690F83D30002B77D0242364
:1034000084F83D302268136823F0010313602268BA
:10341000136843F4004313602268136823F40043E5
:103420001360FFF771F962685A4B9A4264D85A4B9D
:1034300098428CBF00230123002B40F0A8805749FD
:10344000A1FB00318B0C25686A6822F03F0242EA3A
:1034500091426A6021680A6A22F03F0266684D4D17
:10346000AE424FD8013313430B622168CA6922F47C
:103470004F4222F0FF026568464B9D424CD8431EE6
:103480006D00B3FBF5F3013340F6FC70034278D0D6
:10349000C3F30B031A43CA6121680B6823F0C0030E
:1034A000E269206A024313430B6021688B6823F4AE
:1034B000034323F0FF032269E068024313438B6058
:1034C0002168CB6823F0FF036269A06902431343BC
:1034D000CB602268136843F001031360002020646E
:1034E000202384F83D30206384F83E0070BD80F8CE
:1034F0003C30FEF733FC82E7294B98428CBF002317
:10350000012399E74FF4967505FB03F3254DA5FBC1
:1035100003539B090133A6E7A668BEB9431E05EB1A
:10352000450CB3FBFCF30133C3F30B03B3FA83F392
:103530005B0943BBC6B9431E05EB4505B3FBF5F379
:103540000133C3F30B0343F40043A3E7431E05EB2E
:10355000850C0CEB8C0CB3FBFCF30133C3F30B03B6
:10356000B3FA83F35B09E4E7431E05EB850505EB3E
:103570008505B3FBF5F30133C3F30B0343F4404379
:1035800088E7042386E7012384E7012070470120B0
:10359000ACE700BFA08601007F841E0083DE1B43D2
:1035A000FF083D00D34D621040B338B504460368B0
:1035B0004CF6CC421A60036845F255521A60036813
:1035C00042685A60036882689A60FFF709FF0546FF
:1035D0002368DA6812F0030F0BD0FFF701FF401BDE
:1035E0003128F5D92368DB6813F0030FF0D00320EE
:1035F00003E04AF6AA221A60002038BD0120704775
:1036000000285AD010B50446436A33B94368B3F56D
:10361000827F05D00023C36102E000230361436180
:103620000023A36294F85130002B40D0022384F889
:1036300051302268136823F040031360636803F479
:103640008273A26802F404421343E26802F4006247
:103650001343226902F002021343626902F001027D
:103660001343A26902F400721343E26902F03802C4
:103670001343226A02F080021343A26A02F400524A
:10368000216813430B60638B03F00403626A02F04A
:103690001002216813434B602268D36923F400634E
:1036A000D36100206065012384F8513010BD84F897
:1036B00050302046FEF7C0FBB8E7012070470000FD
:1036C00030B4036A026A22F001020262426884692D
:1036D00024F0730C0C6844EA0C0423F0020C8B6891
:1036E00043EA0C03114DA84203D005F58065A842BA
:1036F00005D123F00803CD682B4323F004030B4DC1
:10370000A84203D005F58065A84207D122F4407293
:103710004D6945EA020C8A6942EA0C024260846102
:103720004A684263036230BC704700BF000001403A
:1037300030B4036A026A22F4807202624268C46989
:1037400024F0730C0C6844EA0C0523F400738C68B5
:1037500043EA0423114CA04203D004F58064A04244
:1037600006D123F40063CC6843EA042323F4806386
:103770000A4CA04203D004F58064A04207D122F491
:1037800040524C6942EA04128C6942EA04124260D7
:10379000C5614A68C263036230BC704700000140E3
:1037A00030B4036A026A22F4805202624468C26939
:1037B00022F4E6420D6842EA052223F400538D68A4
:1037C00043EA0533094DA84203D005F58065A842B8
:1037D00004D124F480444D6944EA85144460C261F4
:1037E0004A680264036230BC704700BF00000140B9
:1037F00010B4036A046A24F001040462846924F0AA
:10380000F00C4CEA021223F00A030B4382610362BC
:103810005DF8044B704710B4036A046A24F0100486
:103820000462846924F4704C4CEA023223F0A00351
:1038300043EA0113826103625DF8044B70478368B9
:1038400023F070030B4343F00703836070470000CD
:1038500090F83D30DBB2012B37D1022380F83D30A8
:103860000268D36843F00103D3600368194A9342A6
:1038700020D0B3F1804F1DD0A2F57C42934219D0E5
:1038800002F58062934215D002F58062934211D016
:1038900002F5784293420DD002F57052934209D05E
:1038A000A2F59432934205D01A6842F001021A60E0
:1038B000002070479A6802F00702062A07D01A68AB
:1038C00042F001021A60002070470120704700207A
:1038D000704700BF00000140704770477047704755
:1038E000704770B504460368DE681D6915F0020F65
:1038F00010D016F0020F0DD06FF002021A610123F2
:10390000037703689B6913F0030F5ED0FFF7E6FFB0
:103910000023237715F0040F12D016F0040F0FD0F8
:1039200023686FF004021A610223237723689B69DE
:1039300013F4407F4FD02046FFF7D0FF00232377BA
:1039400015F0080F12D016F0080F0FD023686FF093
:1039500008021A61042323772368DB6913F0030F3D
:1039600040D02046FFF7BAFF0023237715F0100F51
:1039700012D016F0100F0FD023686FF010021A61EA
:10398000082323772368DB6913F4407F31D0204676
:10399000FFF7A4FF0023237715F0010F02D016F0E4
:1039A000010F2DD115F0800F02D016F0800F2FD10E
:1039B00015F0400F02D016F0400F31D115F0200F56
:1039C00002D016F0200F33D170BDFFF786FF2046DE
:1039D000FFF785FF9CE72046FFF77FFF2046FFF7B4
:1039E0007EFFABE72046FFF778FF2046FFF777FF23
:1039F000BAE72046FFF771FF2046FFF770FFC9E7DF
:103A000023686FF001021A612046FDF745FBC9E704
:103A100023686FF080021A61204600F0DAFAC7E7E7
:103A200023686FF040021A612046FFF759FFC5E78F
:103A300023686FF020021A61204600F0C9FAC3E73C
:103A40000368344A904212D0B0F1804F0FD0A2F5F3
:103A50007C4290420BD002F58062904207D002F582
:103A60008062904203D002F57842904203D123F065
:103A700070034A681343274A90422AD0B0F1804F1E
:103A800027D0A2F57C42904223D002F5806290427A
:103A90001FD002F5806290421BD002F5784290421E
:103AA00017D002F57052904213D002F58062904216
:103AB0000FD002F5806290420BD0A2F5983290426E
:103AC00007D002F58062904203D002F580629042F6
:103AD00003D123F44073CA68134323F080034A6977
:103AE000134303608B68C3620B688362094B98427F
:103AF00003D003F58063984201D10B69036301236E
:103B00004361036913F0010F03D0036923F001033C
:103B1000036170470000014040B310B5044690F8BF
:103B20003D30F3B1022384F83D30214651F8040BB7
:103B3000FFF786FF012384F8463084F83E3084F88E
:103B40003F3084F8403084F8413084F8423084F8C3
:103B5000433084F8443084F8453084F83D30002008
:103B600010BD80F83C30FEF7B3F9DBE70120704769
:103B700040B310B5044690F83D30F3B1022384F809
:103B80003D30214651F8040BFFF75AFF012384F81A
:103B9000463084F83E3084F83F3084F8403084F872
:103BA000413084F8423084F8433084F8443084F85B
:103BB000453084F83D30002010BD80F83C30FFF7E0
:103BC0008BFEDBE70120704730B4036A026A22F003
:103BD000100202624468826922F4E6420D6842EAF9
:103BE000052223F020038D6843EA0513114DA842F6
:103BF00003D005F58065A84206D123F08003CD6887
:103C000043EA051323F040030A4DA84203D005F50B
:103C10008065A84207D124F440644D6944EA8504D4
:103C20008D6944EA8504446082614A688263036264
:103C300030BC70470000014038B590F83C30012B93
:103C400066D004460D46012380F83C300C2A5AD831
:103C5000DFE802F0075959591B5959593059595938
:103C600044000068FFF72CFD2268936943F00803C5
:103C700093612268936923F0040393612268936936
:103C800029690B43936100203EE00068FFF79CFF29
:103C90002268936943F4006393612268936923F473
:103CA0008063936122689369296943EA01239361E0
:103CB000002029E00068FFF73BFD2268D36943F04C
:103CC0000803D3612268D36923F00403D361226817
:103CD000D36929690B43D361002015E00068FFF721
:103CE0005FFD2268D36943F40063D3612268D3691E
:103CF00023F48063D3612268D369296943EA0123ED
:103D0000D361002000E00120002384F83C3038BD5E
:103D10000220FCE710B4846824F47F4C42EA0322BA
:103D20000A4342EA0C0282605DF8044B704790F847
:103D30003C30012B78D010B50446012380F83C308C
:103D4000022380F83D300268936823F47F4323F018
:103D5000770393600B68602B4CD029D8402B54D04C
:103D60000CD9502B22D1CA6849680068FFF740FD82
:103D700050212068FFF763FD002005E0202B0DD0C7
:103D800009D9302B0AD00120012384F83D300023CB
:103D900084F83C3010BD0BB1102B05D119462068BA
:103DA000FFF74DFD0020EFE70120EDE70120EBE7F5
:103DB000B3F5805F34D0B3F5005F0CD1CB684A68AF
:103DC00089680068FFF7A6FF2268936843F4804380
:103DD00093600020D8E7702B24D1CB684A688968AB
:103DE0000068FFF797FF2268936843F077039360BA
:103DF0000020C9E7CA6849680068FFF70CFD602128
:103E00002068FFF71CFD0020BEE7CA68496800680B
:103E1000FFF7EEFC40212068FFF711FD0020B3E71B
:103E20000020B1E70120AFE70220704701F00F0149
:103E30004FF0040C0CFA01FC036A23EA0C03036242
:103E4000036A8A40134303627047000010B50446BA
:103E5000084600293BD194F84230DBB2013B18BF41
:103E60000123002B67D100284AD1022384F8423075
:103E7000042201462068FFF7D9FF2268536C43F4FF
:103E80000043536423682E4A934249D0B3F1804FD4
:103E900046D0A2F57C42934242D002F58062934222
:103EA0003ED002F5806293423AD002F578429342C6
:103EB00036D002F57052934232D0A2F5943293423A
:103EC0002ED01A6842F001021A60002032E0042964
:103ED00008D008290DD094F84530DBB2013B18BF5B
:103EE0000123BEE794F84330DBB2013B18BF012346
:103EF000B7E794F84430DBB2013B18BF0123B0E7C9
:103F0000042805D0082807D0022384F84530AFE7FD
:103F1000022384F84330ABE7022384F84430A7E758
:103F20009A6802F00702062A07D01A6842F00102D6
:103F30001A60002010BD0120FCE70020FAE700BF56
:103F40000000014090F83C20012A3DD010B4034607
:103F5000012280F83C20022280F83D20026850684F
:103F6000946820F0700C086840EA0C0050601A68F1
:103F7000164882421AD0B2F1804F17D0A0F57C408B
:103F8000824213D000F5806082420FD000F580603D
:103F900082420BD000F57840824207D000F5705085
:103FA000824203D0A0F59430824204D124F08004F0
:103FB000496821439160012283F83D20002083F865
:103FC0003C005DF8044B7047022070470000014040
:103FD00070477047026802F10C0353E8003F23F07A
:103FE000C0030C3242E800310029F3D1202380F8CD
:103FF00041307047026802F10C0353E8003F23F49C
:1040000090730C3242E800310029F3D1026802F1CA
:10401000140353E8003F23F00103143242E8003157
:104020000029F3D1036B012B05D0202380F8423007
:10403000002303637047026802F10C0353E8003F5A
:1040400023F010030C3242E800310029F3D1ECE7F1
:1040500090F84130DBB2212B01D0022070478368F9
:10406000B3F5805F17D0036A5A1C02621A7803689E
:104070005A60C38C9BB2013B9BB2C3844BB90268AC
:10408000D36823F08003D3600268D36843F0400311
:10409000D360002070470369002BE4D1036A1B88BA
:1040A0000268C3F308035360036A02330362E0E764
:1040B00010B504460268136923F44053C1680B43EA
:1040C0001361836802691A4343691A43C3691A4337
:1040D0000168CB6823F4164323F00C031343CB6031
:1040E0000268536923F4407381690B435361036889
:1040F000314A934206D002F58062934202D0FEF725
:1041000003FB01E0FEF710FBE369B3F5004F29D094
:104110000021031849411B1841F10001C90041EA7F
:104120005371DB00181863684FEA83024FEA9373F8
:1041300041F10001FCF7C0FD204AA2FB0031490912
:10414000642303FB11031B013233A2FB03235B092E
:1041500003F0F00202EB011203F00F032168134495
:104160008B6010BD0023021843EB0301121841F1CC
:104170000001C90041EA5271D200101841F100015A
:10418000626892185B41FCF797FD0C4AA2FB003174
:104190004909642303FB1103DB003233A2FB032331
:1041A0005B095A0002F4F87202EB011203F00703F4
:1041B000216813448B60D4E7001001401F85EB5148
:1041C00060B310B5044690F8413013B3242384F84B
:1041D00041302268D36823F40053D3602046FFF7B0
:1041E00067FF2268136923F49043136122685369BF
:1041F00023F02A0353612268D36843F40053D36049
:1042000000206064202384F8413084F842306063E9
:1042100010BD80F84030FEF717F8D7E7012070474F
:1042200038B5134690F84120D2B2202A2FD1044647
:1042300000292ED00BB9012038BD01628384C384CC
:1042400000224264212084F84100A06B124DC56316
:10425000A06B124D0564A06B114DC564A06B026587
:1042600022680432A06BFEF77FFE23686FF04002E5
:104270001A60226802F1140353E8003F43F0800300
:10428000143242E800310029F3D10020D4E70220A3
:10429000D2E70120D0E700BF2B430008934300087A
:1042A000A343000810B5044603685A6990F84130EA
:1042B000DBB2212B0AD023685A6902F0400294F83D
:1042C0004230DBB2222B19D0002010BD02F0800258
:1042D000002AF0D0226802F1140353E8003F23F0D3
:1042E0008003143242E800310029F3D1A06B08B1F9
:1042F000FEF76FFE2046FFF76DFEDCE7002AE3D0F5
:10430000226802F1140353E8003F23F04003143203
:1043100042E800310029F3D1E06B08B1FEF759FE05
:104320002046FFF767FECFE7704708B50346806B6E
:104330001B681B6813F4807F1AD10023C3840268B2
:1043400002F1140353E8003F23F08003143242E8E3
:1043500000310029F3D1026802F10C0353E8003F59
:1043600043F040030C3242E800310029F3D108BD8C
:10437000FFF7DAFFFBE708B50168CA6822F04002E0
:10438000CA60202280F84120FFF7CEFF002008BD40
:10439000704708B5806BFFF7FBFF08BD704770479B
:1043A000704710B5846B23685A6994F84130DBB2CA
:1043B000212B10D023685A6902F0400294F8423051
:1043C000DBB2222B11D0636C43F0100363642046F0
:1043D000FFF7E6FF10BD02F08002002AEAD00023BA
:1043E000E3842046FFF7F6FDE4E7002AEBD0002344
:1043F000E3852046FFF7FEFDE5E708B5806B002367
:10440000C385C384FFF7CCFF08BD704790F84230E6
:10441000DBB2222B69D18368B3F5805F4FD0826A0B
:10442000B3F5805F04D0002B56D10369002B53D124
:1044300003685B681370836A01338362C38D9BB228
:10444000013B9BB2C385002B51D100B583B00268FC
:10445000D36823F02003D3600268D36823F4807309
:10446000D3600268536923F001035361202380F86D
:10447000423000234363036B012B33D100230363DA
:10448000026802F10C0353E8003F23F010030C32E2
:1044900042E800310029F3D103681A6812F0100FC6
:1044A00006D0002201921A6801925B680193019B79
:1044B000818DFFF7AAFF002003B05DF804FB0269BD
:1044C000002AACD1826A03685B68C3F308031380D7
:1044D000836A02338362B1E703685B6803F07F039A
:1044E0001370A8E7FFF75AFFE5E7022070470020A6
:1044F0007047000030B583B0044602681368D06886
:10450000516913F00F0505D113F0200F02D010F000
:10451000200F19D12DB111F0010119D110F4907FA4
:1045200016D1216B01297DD013F0800F03D010F03C
:10453000800F40F0198113F0400F03D010F0400FAE
:1045400040F0168103B030BD2046FFF75FFFF9E76A
:1045500013F0010F06D010F4807F03D0626C42F09C
:104560000102626413F0040F04D019B1626C42F0CE
:104570000202626413F0020F04D019B1626C42F0BF
:104580000402626413F0080F07D010F0200F00D16E
:1045900019B1626C42F008026264626C002AD1D0E8
:1045A00013F0200F02D010F0200F29D123685B698F
:1045B00003F04003626C12F0080F00D163B3204691
:1045C000FFF718FD23685B6913F0400F20D02268C5
:1045D00002F1140353E8003F23F04003143242E891
:1045E00000310029F3D1E36B73B1634A1A65E06BC4
:1045F000FEF739FD0028A5D0E06B036D9847A1E7D1
:104600002046FFF703FFD1E72046FFF7C9FE99E7F1
:104610002046FFF7C5FE95E72046FFF7C1FE0023C1
:1046200063648FE713F0100F3FF47EAF10F0100FAC
:104630003FF47AAF00230193136801935368019309
:10464000019B536913F0400F52D0E26B13685B6813
:104650009BB2002B3FF476AFA18D99427FF672AFEB
:10466000E385D369B3F5807F37D0226802F10C036C
:1046700053E8003F23F480730C3242E800310029F4
:10468000F3D1226802F1140353E8003F23F0010341
:10469000143242E800310029F3D1226802F11403F8
:1046A00053E8003F23F04003143242E80031002970
:1046B000F3D1202384F8423000232363226802F1DF
:1046C0000C0353E8003F23F010030C3242E80031A2
:1046D0000029F3D1E06BFEF77CFC02236363A18D1C
:1046E000E38D9BB2C91A89B22046FFF78EFE29E7F7
:1046F000A18DE38D9BB2C91A89B2E38D9BB2002BC9
:104700003FF420AF00293FF41DAF226802F10C03F3
:1047100053E8003F23F490730C3242E80030002845
:10472000F3D1226802F1140353E8003F23F00103A0
:10473000143242E800300028F3D1202384F84230BC
:1047400000232363226802F10C0353E8003F23F0A7
:1047500010030C3242E800300028F3D102236363D7
:104760002046FFF752FEEDE62046FFF771FCE9E632
:104770002046FFF700FEE5E6FB43000808B5806B26
:1047800001234363036B012B02D0FFF708FE08BD32
:10479000818D4908FFF739FEF9E708B50346806BBC
:1047A0001B681B6813F4807F2BD10023C38502682C
:1047B00002F10C0353E8003F23F480730C3242E80B
:1047C00000310029F3D1026802F1140353E8003FDD
:1047D00023F00103143242E800310029F3D10268CA
:1047E00002F1140353E8003F23F04003143242E87F
:1047F00000310029F3D1202380F84230036B012BD4
:1048000007D000234363036B012B0FD0FFF7C6FDD6
:1048100008BD026802F10C0353E8003F23F01003C7
:104820000C3242E800310029F3D1EAE7818DFFF72D
:10483000ECFDEDE730B583B0044613468162828516
:1048400000254564222280F84220C26B1F48D063B5
:10485000E26B1F481064E26B1E48D064E26B156582
:1048600020680A46011DE06BFEF77EFB0195236878
:104870001A6801925B680193019B23695BB122680E
:1048800002F10C0353E8003F43F480730C3242E81A
:1048900000310029F3D1226802F1140353E8003FEC
:1048A00043F00103143242E800310029F3D12268B9
:1048B00002F1140353E8003F43F04003143242E88E
:1048C00000310029F3D1002003B030BD9B47000820
:1048D0007D470008A343000808B590F84230DBB2DA
:1048E000202B08D149B10AB9012008BD0023036378
:1048F000FFF7A0FFF9E70220F7E70120F5E7000046
:10490000034AD2F8883043F47003C2F88830704705
:1049100000ED00E000F1080343604FF0FF328260D9
:10492000C360036100230360704700230361704785
:1049300043684B609A688A605160996008610368B7
:1049400001330360704730B40D68B5F1FF3F11D0FB
:1049500000F108031C465B681A68AA42FAD963682A
:104960004B6099608C60616008610368013303608B
:1049700030BC70470469F2E70369416882688A6065
:10498000416851605A68824206D0002202611A686A
:10499000013A1A601868704782685A60F5E710B5E6
:1049A000044601F0CFFCA26BE36B9A4204D00024D2
:1049B00001F0EAFC204610BD0124F9E710B50446D9
:1049C00001F0C0FCA36B23B9012401F0DDFC2046FB
:1049D00010BD0024F9E770B504461546866B026CDD
:1049E0005AB903681BB100200136A66370BD806808
:1049F00000F0EEFF0023A360F6E76DB9406802F017
:104A0000BEFA226C636813446360A268934219D3B0
:104A1000236863602846E7E7C06802F0B0FA226CBA
:104A20005142E3689B1AE3602268934202D2A36872
:104A30000B44E360022D01D00020D5E726B1013EF2
:104A40000020D1E72846CFE70020CDE70346026CDF
:104A50006AB110B50846D9681144D9609C68A14272
:104A600001D31968D960D96802F089FA10BD70477E
:104A700038B5054601F066FC95F8454064B201E0A2
:104A8000013C64B2002C0ADD6B6A43B105F12400DD
:104A900000F0D8FE0028F3D000F084FFF0E7FF23F9
:104AA00085F8453001F070FC01F04CFC95F844406D
:104AB00064B201E0013C64B2002C0ADD2B6943B111
:104AC00005F1100000F0BEFE0028F3D000F06AFFF0
:104AD000F0E7FF2385F8443001F056FC38BD38B5C7
:104AE000E0B10D46044601F02DFC2368E26B216C19
:104AF00001FB0230A0600020A0636360013A02FB6A
:104B00000133E360FF2384F8443084F84530FDB975
:104B1000236963B901F038FC012038BD4FF0500320
:104B200083F31188BFF36F8FBFF34F8FFEE704F15C
:104B3000100000F087FE0028ECD04FF0E0234FF08B
:104B40008052C3F8042DBFF34F8FBFF36F8FE1E79F
:104B500004F11000FFF7DEFE04F12400FFF7DAFE97
:104B6000D8E738B51D46049C0B4649B92460E0637C
:104B7000236401212046FFF7B2FF84F84C5038BD72
:104B80002260F4E740B94FF0500383F31188BFF37C
:104B90006F8FBFF34F8FFEE710B584B01C4684467D
:104BA00053B192B189B94FF0500383F31188BFF329
:104BB0006F8FBFF34F8FFEE74FF0500383F31188E1
:104BC000BFF36F8FBFF34F8FFEE76AB1502303939C
:104BD000039B502B13D04FF0500383F31188BFF386
:104BE0006F8FBFF34F8FFEE70029EFD04FF05003D8
:104BF00083F31188BFF36F8FBFF34F8FFEE7039BE3
:104C0000012384F8463000949DF818306046FFF781
:104C1000A8FF204604B010BDF0B585B0019288B160
:104C20000F461D460446B1B1022D20D1E36B012B86
:104C30001DD04FF0500383F31188BFF36F8FBFF384
:104C40004F8FFEE74FF0500383F31188BFF36F8F50
:104C5000BFF34F8FFEE7036C002BE5D04FF05003FE
:104C600083F31188BFF36F8FBFF34F8FFEE700F020
:104C70009FFE064658B9019B002B48D04FF05003C9
:104C800083F31188BFF36F8FBFF34F8FFEE70026CA
:104C90003DE02A4639462046FFF79DFE636A7BB910
:104CA00048B14FF0E0234FF08052C3F8042DBFF31A
:104CB0004F8FBFF36F8F01F067FB012005B0F0BD90
:104CC00004F1240000F0BEFD0028F4D04FF0E023F2
:104CD0004FF08052C3F8042DBFF34F8FBFF36F8F97
:104CE000E9E701F051FB0020E8E702A800F00CFE24
:104CF000012619E0002384F8443021E0002384F8E1
:104D0000453023E02046FFF7B3FE00F07BFC01F0C6
:104D100019FBA26BE36B9A42BBD3022DB9D0019B66
:104D2000002BDED0002EE0D001F02EFB00F0D0FBF7
:104D300001F008FB94F8442052B2B2F1FF3FD9D001
:104D400094F8452052B2B2F1FF3FD7D001F01CFBDE
:104D500001A902A800F0E4FDD8B92046FFF71FFE24
:104D60000028CFD0019904F1100000F037FD204653
:104D7000FFF77EFE00F046FC0028C8D14FF0E0238C
:104D80004FF08052C3F8042DBFF34F8FBFF36F8FE6
:104D9000BDE72046FFF76CFE00F034FC00208DE7F5
:104DA0002DE9F84390B10F4616461C460546B1B1B1
:104DB000022C20D1EB6B012B1DD04FF0500383F35D
:104DC0001188BFF36F8FBFF34F8FFEE74FF0500393
:104DD00083F31188BFF36F8FBFF34F8FFEE7036C30
:104DE000002BE5D04FF0500383F31188BFF36F8F92
:104DF000BFF34F8FFEE701F0CBFBEFF311884FF0CD
:104E0000500383F31188BFF36F8FBFF34F8FAA6BEB
:104E1000EB6B9A4206D3022C04D0002088F3118851
:104E2000BDE8F88395F845904FFA89F9AB6B2246B7
:104E300039462846FFF7CFFDB9F1FF3F06D009F10B
:104E400001035BB285F845300120E7E76B6A0BB9D7
:104E50000120E3E705F1240000F0F4FC18B126B1CD
:104E600001203060DAE70120D8E70120D6E7F0B56D
:104E700085B0019290B10F460446C1B100F098FD93
:104E8000064600BB019B002B5ED04FF0500383F31E
:104E90001188BFF36F8FBFF34F8FFEE74FF05003C2
:104EA00083F31188BFF36F8FBFF34F8FFEE7036C5F
:104EB000002BE3D04FF0500383F31188BFF36F8FC3
:104EC000BFF34F8FFEE700263EE039462046FFF74E
:104ED000BDFD013DA563236923B901F055FA012009
:104EE00005B0F0BD04F1100000F0ACFC0028F4D0D7
:104EF0004FF0E0234FF08052C3F8042DBFF34F8FE3
:104F0000BFF36F8FE9E701F03FFA0020E8E702A85E
:104F100000F0FAFC012621E0002384F8443029E067
:104F2000002384F845302BE02046FFF7A1FD00F078
:104F300069FB09E02046FFF79BFD00F063FB20467C
:104F4000FFF73CFD00283FD101F0FCF9A56B002DD7
:104F5000BBD1019B002BD6D0002ED8D001F014FA83
:104F600000F0B6FA01F0EEF994F844305BB2B3F118
:104F7000FF3FD1D094F845305BB2B3F1FF3FCFD0C3
:104F800001F002FA01A902A800F0CAFC0028D1D160
:104F90002046FFF713FD0028C6D0019904F1240034
:104FA00000F01CFC2046FFF763FD00F02BFB0028FF
:104FB000CAD14FF0E0234FF08052C3F8042DBFF365
:104FC0004F8FBFF36F8FBFE7002089E70023072BC8
:104FD0000CD8074A52F833200AB10133F7E7044AE4
:104FE00042F8331002EBC30250607047704700BFB5
:104FF0006CCE032070B504460D46164601F0A2F9AA
:1050000094F844305BB2B3F1FF3F0DD094F84530D3
:105010005BB2B3F1FF3F0BD001F0B6F9A36B5BB10C
:105020002046FFF725FD70BD002384F84430EDE7EE
:10503000002384F84530EFE73246294604F1240086
:1050400000F0E4FBECE70000084B1B681B6823B989
:10505000074B4FF0FF321A607047044B1B68DB6848
:10506000DB685A68024B1A60704700BFB0CE03205D
:1050700058D303202DE9F04780460D461746994640
:10508000089EDDF824A00A9C9200A521206B01F067
:1050900041FF236B07F18042013A03EB820727F0BF
:1050A0000707A5B34FF0000CBCF10F0F09D815F896
:1050B0000C3004EB0C0282F8343013B10CF1010C0B
:1050C000F2E7002384F84330372E00D93726E66212
:1050D000E66400252565201DFFF727FC04F1180074
:1050E000FFF723FC2461C6F13806A661646265659A
:1050F00084F858504A464146384601F0F7F8206097
:10510000BAF1000F01D0CAF80040BDE8F0870023D3
:1051100084F83430D8E7000038B5002407E004EB09
:10512000840293000E481844FFF7F4FB0134372C37
:10513000F5D90C4D2846FFF7EDFB0B4C2046FFF749
:10514000E9FB0A48FFF7E6FB0948FFF7E3FB0948DC
:10515000FFF7E0FB084B1D60084B1C6038BD00BF2B
:10516000B8CE03202CD3032040D3032064D30320E4
:1051700090D303207CD30320B0CE0320B4CE0320F1
:1051800010B5044601F0DEF8224A136801331360BB
:10519000214B1B685BB1214B1B686BB91E4B1B6815
:1051A000DA6AE36A9A4207D81B4B1C6004E01A4B88
:1051B0001C601368012B29D0194A1368013313604E
:1051C0006364E06A174B1B68984201D9154B18605D
:1051D00000EB8000211D144B03EB8000FFF7A8FBC0
:1051E00001F0D2F80D4B1B687BB10B4B1B68DA6AE0
:1051F000E36A9A4209D24FF0E0234FF08052C3F89D
:10520000042DBFF34F8FBFF36F8F10BDFFF784FFE7
:10521000D2E700BF18D30320ACCE032078D30320FD
:1052200024D3032028D30320B8CE032010B504468E
:1052300090F8593063B1012B11D0022B0ED04FF0F2
:10524000500383F31188BFF36F8FBFF34F8FFEE7D7
:10525000006B00F0CFFF204600F0CCFF10BD00F047
:10526000C9FFFBE70F4B1B68D3B110B501F06AF81B
:105270000D4BDB68DC68201DFFF77EFB0B4A1368D3
:10528000013B1360074A1368013B136001F07CF88F
:105290002046FFF7CBFF034B1B68002BE6D110BD68
:1052A000704700BF1CD3032090D3032018D30320E2
:1052B00008B5FFF7D7FF074B1B68012BF9D94FF053
:1052C000E0234FF08052C3F8042DBFF34F8FBFF39C
:1052D0006F8FEEE7B8CE032070B504460D46174B2E
:1052E0001E68174B18680430FFF746FBB4F1FF3F08
:1052F0000DD03444124B1B685C60A64210D9114B90
:1053000018680F4B19680431FFF71DFB70BD002DA5
:10531000EFD00B4B196804310B48FFF709FBF5E799
:105320000A4B1868064B19680431FFF70CFB084B51
:105330001B68A342EAD9064B1C60E7E7A4D303200D
:10534000ACCE0320B4CE03207CD30320B0CE032008
:1053500058D3032030B587B00B9C7CB10C9DB5B100
:105360005C250495049D5C2D1AD04FF0500383F307
:105370001188BFF36F8FBFF34F8FFEE74FF05003DD
:1053800083F31188BFF36F8FBFF34F8FFEE74FF0AA
:10539000500383F31188BFF36F8FBFF34F8FFEE786
:1053A000049D0C9D2C63022485F85940002403942D
:1053B000029505AC01940A9C0094FFF75BFE0C98E3
:1053C000FFF7DEFE059807B030BD2DE9F04385B04C
:1053D0000746884614461E46900000F08DFE00B336
:1053E00081465C2000F088FE0546B0B1C0F83090E0
:1053F000E5B1002385F85930039302950D9B019385
:105400000C9B00933346224641463846FFF732FE56
:105410002846FFF7B5FE012005E0484600F0EAFE09
:10542000E6E74FF0FF3005B0BDE8F0834FF0FF3006
:10543000F9E7000010B588B000240594069407AA87
:1054400006A905A800F0DCFD059B0293069B0193CD
:1054500000942346079A18491848FFF77BFF184B1A
:10546000186040B100F068FB012806D0B0F1FF3FA2
:1054700018D008B010BD0020F6E74FF0500383F3BA
:105480001188BFF36F8FBFF34F8F0E4B4FF0FF327A
:105490001A600D4B01221A600C4B00221A6000F0BA
:1054A000EBFFE6E74FF0500383F31188BFF36F8FF4
:1054B000BFF34F8FFEE700BF50EE0108B152000866
:1054C00054D3032058D3032078D30320A4D303203C
:1054D000024A136801331360704700BF20D30320D2
:1054E000014B1868704700BFA4D30320F8B53A4BAE
:1054F0001B68002B69D1394B1D6801351D60C5B98A
:10550000374B1B681B6843B14FF0500383F311887E
:10551000BFF36F8FBFF34F8FFEE7314A1168314BF6
:10552000186810601960304A136801331360FFF780
:105530008BFD2E4B1B68AB423DD900272C4B1B68C3
:10554000DB6A03EB83039A002A4B9B58012B00D99B
:105550000127294B1B68002B3CD001273AE001278B
:105560001F4B1B681B6843B31D4B1B68DB68DC6863
:1055700063689D4226D3261D3046FFF7FDF9A36AD6
:105580001BB104F11800FFF7F7F9E36A1B4A126830
:10559000934201D9194A136003EB83039A00314601
:1055A00014481044FFF7C4F9E26A114B1B68DB6A28
:1055B0009A42D4D2D4E70027D2E70C4B4FF0FF3207
:1055C0001A60BBE7094A1360B8E70D4A1368013354
:1055D000136000273846F8BD20D30320A4D303204E
:1055E000B0CE0320B4CE03205CD3032058D30320D5
:1055F000ACCE0320B8CE0320A8D3032028D30320A9
:1056000060D3032038B5354B1B6843B94FF05003C6
:1056100083F31188BFF36F8FBFF34F8FFEE700F066
:1056200091FE2E4B1A68013A1A601B68002B4FD16D
:105630002B4B1B680BB900244BE00024294B1B6843
:105640001BB3284BDB68DC6804F11800FFF794F902
:10565000251D2846FFF790F9E06A234B1B68984206
:1056600001D9214B186000EB800029461F4B03EB4A
:105670008000FFF75DF9E26A1D4B1B68DB6A9A4206
:10568000DCD31C4B01221A60D8E70CB1FFF7DCFC1D
:10569000194B1C6884B9174B1C68D4B14FF0E02338
:1056A0004FF08052C3F8042DBFF34F8FBFF36F8FBD
:1056B00001240EE0013C07D0FFF718FF0028F9D0C5
:1056C0000C4B01221A60F5E70B4B00221A60E2E74F
:1056D000002400F059FE204638BD00BF20D303202F
:1056E00018D3032064D3032028D30320B8CE03208B
:1056F000ACCE0320A8D3032060D3032010B5A8B1FB
:105700000446104B1B6843B14FF0500383F31188DC
:10571000BFF36F8FBFF34F8FFEE7FFF7D9FE002176
:105720002046FFF7D9FDFFF76DFF48B94FF0E023A2
:105730004FF08052C3F8042DBFF34F8FBFF36F8F2C
:1057400010BD00BF20D303201F4B1B681BB11F4B94
:1057500001221A6070471D4B00221A601C4B1B6807
:1057600003EB83018A001B498A585AB90BB1013BEC
:10577000F6E74FF0500383F31188BFF36F8FBFF349
:105780004F8FFEE703EB830082000A4450684068B5
:10579000506003EB830C4FEA8C02083211448842BC
:1057A0000BD003EB830291000A4A0A445268D16885
:1057B000094A1160064A13607047406862469100CA
:1057C000044A0A445060ECE720D30320A8D3032006
:1057D00028D30320B8CE0320ACCE032058B110B597
:1057E0000C46094A11681831FFF7ADF8012120462F
:1057F000FFF772FD10BD4FF0500383F31188BFF324
:105800006F8FBFF34F8FFEE7ACCE032038B570B17A
:105810000D4614460A4A11681831FFF789F80CB191
:105820004FF0FF3521462846FFF756FD38BD4FF0B3
:10583000500383F31188BFF36F8FBFF34F8FFEE7E1
:10584000ACCE032038B5C368DC6824B304F1180576
:105850002846FFF791F8184B1B682BBB251D2846DF
:10586000FFF78AF8E06A154B1B68984201D9134B81
:10587000186000EB80002946114B03EB8000FFF716
:1058800057F8E26A0F4B1B68DB6A9A4211D9012074
:105890000D4B186038BD4FF0500383F31188BFF3F0
:1058A0006F8FBFF34F8FFEE729460848FFF740F898
:1058B000E7E70020EEE700BF20D3032028D3032032
:1058C000B8CE0320ACCE0320A8D3032064D303209A
:1058D00060B110B5044600F035FD094B1B6823602C
:1058E000084B1B68636000F04FFD10BD4FF0500384
:1058F00083F31188BFF36F8FBFF34F8FFEE700BFB5
:105900005CD30320A4D30320034B1B680360034B29
:105910001B684360704700BF5CD30320A4D30320FF
:10592000F8B5C8B10C460546F9B100F00BFD1B4BAC
:1059300019686B68C81A2268B2F1FF3F26D0184E6A
:1059400036682F68B74201D08B4224D9824215D8DD
:105950000023236001241AE04FF0500383F31188E1
:10596000BFF36F8FBFF34F8FFEE74FF0500383F30A
:105970001188BFF36F8FBFF34F8FFEE75B1A13449D
:1059800023602846FFF7C0FF002400E0002400F059
:10599000FBFC2046F8BD0124F9E700BFA4D3032097
:1059A0005CD30320014B01221A607047A8D3032067
:1059B000054B1B6833B1054B1B680BB100207047CA
:1059C000022070470120704778D3032020D30320A2
:1059D00000283BD038B504461E4B1B68834208D0D4
:1059E0004FF0500383F31188BFF36F8FBFF34F8FD6
:1059F000FEE7036D43B94FF0500383F31188BFF303
:105A00006F8FBFF34F8FFEE7013B0365C16AC26C26
:105A100091421DD00BB1002038BD051D2846FEF770
:105A2000ABFFE06CE062C0F13803A3610A4B1B6876
:105A3000984201D9084B186000EB80002946074BBB
:105A400003EB8000FEF774FF0120E5E700207047BC
:105A50000020E1E7ACCE032028D30320B8CE0320FA
:105A6000064B1A6813682BB90123036023B9D36866
:105A7000186870470023F8E700207047ACD3032074
:105A800008B54160006191420CD8D21A83699A42EC
:105A900001D3012008BD011D094B1868FEF753FF13
:105AA0000020F7E79A4201D2994206D2011D054B28
:105AB0001868FEF748FF0020ECE70120EAE700BF86
:105AC000B0D30320ACD3032030B583B000F03AFC50
:105AD000114B1B681BB100F057FC03B030BD0F4DDC
